{
  "contractName": "MapERC20withERC21",
  "abi": [
    {
      "inputs": [
        {
          "internalType": "address",
          "name": "ERC20Address",
          "type": "address"
        }
      ],
      "stateMutability": "nonpayable",
      "type": "constructor"
    },
    {
      "anonymous": false,
      "inputs": [
        {
          "indexed": true,
          "internalType": "address",
          "name": "owner",
          "type": "address"
        },
        {
          "indexed": true,
          "internalType": "address",
          "name": "approved",
          "type": "address"
        },
        {
          "indexed": true,
          "internalType": "uint256",
          "name": "tokenId",
          "type": "uint256"
        }
      ],
      "name": "Approval",
      "type": "event"
    },
    {
      "anonymous": false,
      "inputs": [
        {
          "indexed": true,
          "internalType": "address",
          "name": "owner",
          "type": "address"
        },
        {
          "indexed": true,
          "internalType": "address",
          "name": "operator",
          "type": "address"
        },
        {
          "indexed": false,
          "internalType": "bool",
          "name": "approved",
          "type": "bool"
        }
      ],
      "name": "ApprovalForAll",
      "type": "event"
    },
    {
      "anonymous": false,
      "inputs": [
        {
          "indexed": true,
          "internalType": "address",
          "name": "owner",
          "type": "address"
        },
        {
          "indexed": true,
          "internalType": "uint256",
          "name": "tokenId",
          "type": "uint256"
        }
      ],
      "name": "TokenMinted",
      "type": "event"
    },
    {
      "anonymous": false,
      "inputs": [
        {
          "indexed": true,
          "internalType": "address",
          "name": "from",
          "type": "address"
        },
        {
          "indexed": true,
          "internalType": "address",
          "name": "to",
          "type": "address"
        },
        {
          "indexed": true,
          "internalType": "uint256",
          "name": "tokenId",
          "type": "uint256"
        }
      ],
      "name": "Transfer",
      "type": "event"
    },
    {
      "inputs": [
        {
          "internalType": "address",
          "name": "to",
          "type": "address"
        },
        {
          "internalType": "uint256",
          "name": "tokenId",
          "type": "uint256"
        }
      ],
      "name": "approve",
      "outputs": [],
      "stateMutability": "nonpayable",
      "type": "function"
    },
    {
      "inputs": [
        {
          "internalType": "address",
          "name": "owner",
          "type": "address"
        }
      ],
      "name": "balanceOf",
      "outputs": [
        {
          "internalType": "uint256",
          "name": "",
          "type": "uint256"
        }
      ],
      "stateMutability": "view",
      "type": "function"
    },
    {
      "inputs": [
        {
          "internalType": "uint256",
          "name": "tokenId",
          "type": "uint256"
        }
      ],
      "name": "getApproved",
      "outputs": [
        {
          "internalType": "address",
          "name": "",
          "type": "address"
        }
      ],
      "stateMutability": "view",
      "type": "function"
    },
    {
      "inputs": [
        {
          "internalType": "address",
          "name": "owner",
          "type": "address"
        },
        {
          "internalType": "address",
          "name": "operator",
          "type": "address"
        }
      ],
      "name": "isApprovedForAll",
      "outputs": [
        {
          "internalType": "bool",
          "name": "",
          "type": "bool"
        }
      ],
      "stateMutability": "view",
      "type": "function"
    },
    {
      "inputs": [],
      "name": "name",
      "outputs": [
        {
          "internalType": "string",
          "name": "",
          "type": "string"
        }
      ],
      "stateMutability": "view",
      "type": "function"
    },
    {
      "inputs": [
        {
          "internalType": "uint256",
          "name": "tokenId",
          "type": "uint256"
        }
      ],
      "name": "ownerOf",
      "outputs": [
        {
          "internalType": "address",
          "name": "",
          "type": "address"
        }
      ],
      "stateMutability": "view",
      "type": "function"
    },
    {
      "inputs": [
        {
          "internalType": "address",
          "name": "from",
          "type": "address"
        },
        {
          "internalType": "address",
          "name": "to",
          "type": "address"
        },
        {
          "internalType": "uint256",
          "name": "tokenId",
          "type": "uint256"
        }
      ],
      "name": "safeTransferFrom",
      "outputs": [],
      "stateMutability": "nonpayable",
      "type": "function"
    },
    {
      "inputs": [
        {
          "internalType": "address",
          "name": "from",
          "type": "address"
        },
        {
          "internalType": "address",
          "name": "to",
          "type": "address"
        },
        {
          "internalType": "uint256",
          "name": "tokenId",
          "type": "uint256"
        },
        {
          "internalType": "bytes",
          "name": "data",
          "type": "bytes"
        }
      ],
      "name": "safeTransferFrom",
      "outputs": [],
      "stateMutability": "nonpayable",
      "type": "function"
    },
    {
      "inputs": [
        {
          "internalType": "address",
          "name": "operator",
          "type": "address"
        },
        {
          "internalType": "bool",
          "name": "approved",
          "type": "bool"
        }
      ],
      "name": "setApprovalForAll",
      "outputs": [],
      "stateMutability": "nonpayable",
      "type": "function"
    },
    {
      "inputs": [
        {
          "internalType": "bytes4",
          "name": "interfaceId",
          "type": "bytes4"
        }
      ],
      "name": "supportsInterface",
      "outputs": [
        {
          "internalType": "bool",
          "name": "",
          "type": "bool"
        }
      ],
      "stateMutability": "view",
      "type": "function"
    },
    {
      "inputs": [],
      "name": "symbol",
      "outputs": [
        {
          "internalType": "string",
          "name": "",
          "type": "string"
        }
      ],
      "stateMutability": "view",
      "type": "function"
    },
    {
      "inputs": [
        {
          "internalType": "uint256",
          "name": "tokenId",
          "type": "uint256"
        }
      ],
      "name": "tokenURI",
      "outputs": [
        {
          "internalType": "string",
          "name": "",
          "type": "string"
        }
      ],
      "stateMutability": "view",
      "type": "function"
    },
    {
      "inputs": [
        {
          "internalType": "address",
          "name": "from",
          "type": "address"
        },
        {
          "internalType": "address",
          "name": "to",
          "type": "address"
        },
        {
          "internalType": "uint256",
          "name": "tokenId",
          "type": "uint256"
        }
      ],
      "name": "transferFrom",
      "outputs": [],
      "stateMutability": "nonpayable",
      "type": "function"
    },
    {
      "inputs": [],
      "name": "Mint",
      "outputs": [],
      "stateMutability": "nonpayable",
      "type": "function"
    },
    {
      "inputs": [
        {
          "internalType": "uint256",
          "name": "tokenID",
          "type": "uint256"
        }
      ],
      "name": "getERC20BALance",
      "outputs": [
        {
          "internalType": "uint256",
          "name": "",
          "type": "uint256"
        }
      ],
      "stateMutability": "view",
      "type": "function"
    },
    {
      "inputs": [
        {
          "internalType": "uint256",
          "name": "fromID",
          "type": "uint256"
        },
        {
          "internalType": "uint256",
          "name": "ToID",
          "type": "uint256"
        },
        {
          "internalType": "uint256",
          "name": "amnt",
          "type": "uint256"
        }
      ],
      "name": "TransferERC20",
      "outputs": [],
      "stateMutability": "nonpayable",
      "type": "function"
    }
  ],
  "bytecode": "0x60806040523480156200001157600080fd5b50604051620030c8380380620030c883398181016040528101906200003791906200017b565b6040518060400160405280600881526020017f546f6b656e3732310000000000000000000000000000000000000000000000008152506040518060400160405280600381526020017f544b4e00000000000000000000000000000000000000000000000000000000008152508160009081620000b4919062000427565b508060019081620000c6919062000427565b50505080600760006101000a81548173ffffffffffffffffffffffffffffffffffffffff021916908373ffffffffffffffffffffffffffffffffffffffff160217905550506200050e565b600080fd5b600073ffffffffffffffffffffffffffffffffffffffff82169050919050565b6000620001438262000116565b9050919050565b620001558162000136565b81146200016157600080fd5b50565b60008151905062000175816200014a565b92915050565b60006020828403121562000194576200019362000111565b5b6000620001a48482850162000164565b91505092915050565b600081519050919050565b7f4e487b7100000000000000000000000000000000000000000000000000000000600052604160045260246000fd5b7f4e487b7100000000000000000000000000000000000000000000000000000000600052602260045260246000fd5b600060028204905060018216806200022f57607f821691505b602082108103620002455762000244620001e7565b5b50919050565b60008190508160005260206000209050919050565b60006020601f8301049050919050565b600082821b905092915050565b600060088302620002af7fffffffffffffffffffffffffffffffffffffffffffffffffffffffffffffffff8262000270565b620002bb868362000270565b95508019841693508086168417925050509392505050565b6000819050919050565b6000819050919050565b60006200030862000302620002fc84620002d3565b620002dd565b620002d3565b9050919050565b6000819050919050565b6200032483620002e7565b6200033c62000333826200030f565b8484546200027d565b825550505050565b600090565b6200035362000344565b6200036081848462000319565b505050565b5b8181101562000388576200037c60008262000349565b60018101905062000366565b5050565b601f821115620003d757620003a1816200024b565b620003ac8462000260565b81016020851015620003bc578190505b620003d4620003cb8562000260565b83018262000365565b50505b505050565b600082821c905092915050565b6000620003fc60001984600802620003dc565b1980831691505092915050565b6000620004178383620003e9565b9150826002028217905092915050565b6200043282620001ad565b67ffffffffffffffff8111156200044e576200044d620001b8565b5b6200045a825462000216565b620004678282856200038c565b600060209050601f8311600181146200049f57600084156200048a578287015190505b62000496858262000409565b86555062000506565b601f198416620004af866200024b565b60005b82811015620004d957848901518255600182019150602085019450602081019050620004b2565b86831015620004f95784890151620004f5601f891682620003e9565b8355505b6001600288020188555050505b505050505050565b612baa806200051e6000396000f3fe608060405234801561001057600080fd5b50600436106101005760003560e01c80636352211e11610097578063b88d4fde11610066578063b88d4fde146102ab578063c87b56dd146102c7578063e985e9c5146102f7578063f14565a81461032757610100565b80636352211e1461021157806370a082311461024157806395d89b4114610271578063a22cb4651461028f57610100565b806323b872dd116100d357806323b872dd1461019f57806334c73884146101bb57806342842e0e146101c557806345967969146101e157610100565b806301ffc9a71461010557806306fdde0314610135578063081812fc14610153578063095ea7b314610183575b600080fd5b61011f600480360381019061011a9190611b25565b610343565b60405161012c9190611b6d565b60405180910390f35b61013d610425565b60405161014a9190611c18565b60405180910390f35b61016d60048036038101906101689190611c70565b6104b7565b60405161017a9190611cde565b60405180910390f35b61019d60048036038101906101989190611d25565b6104fd565b005b6101b960048036038101906101b49190611d65565b610614565b005b6101c3610674565b005b6101df60048036038101906101da9190611d65565b610788565b005b6101fb60048036038101906101f69190611c70565b6107a8565b6040516102089190611dc7565b60405180910390f35b61022b60048036038101906102269190611c70565b61080d565b6040516102389190611cde565b60405180910390f35b61025b60048036038101906102569190611de2565b610893565b6040516102689190611dc7565b60405180910390f35b61027961094a565b6040516102869190611c18565b60405180910390f35b6102a960048036038101906102a49190611e3b565b6109dc565b005b6102c560048036038101906102c09190611fb0565b6109f2565b005b6102e160048036038101906102dc9190611c70565b610a54565b6040516102ee9190611c18565b60405180910390f35b610311600480360381019061030c9190612033565b610abc565b60405161031e9190611b6d565b60405180910390f35b610341600480360381019061033c9190612073565b610b50565b005b60007f80ac58cd000000000000000000000000000000000000000000000000000000007bffffffffffffffffffffffffffffffffffffffffffffffffffffffff1916827bffffffffffffffffffffffffffffffffffffffffffffffffffffffff1916148061040e57507f5b5e139f000000000000000000000000000000000000000000000000000000007bffffffffffffffffffffffffffffffffffffffffffffffffffffffff1916827bffffffffffffffffffffffffffffffffffffffffffffffffffffffff1916145b8061041e575061041d82610d40565b5b9050919050565b606060008054610434906120f5565b80601f0160208091040260200160405190810160405280929190818152602001828054610460906120f5565b80156104ad5780601f10610482576101008083540402835291602001916104ad565b820191906000526020600020905b81548152906001019060200180831161049057829003601f168201915b5050505050905090565b60006104c282610daa565b6004600083815260200190815260200160002060009054906101000a900473ffffffffffffffffffffffffffffffffffffffff169050919050565b60006105088261080d565b90508073ffffffffffffffffffffffffffffffffffffffff168373ffffffffffffffffffffffffffffffffffffffff1603610578576040517f08c379a000000000000000000000000000000000000000000000000000000000815260040161056f90612198565b60405180910390fd5b8073ffffffffffffffffffffffffffffffffffffffff16610597610df5565b73ffffffffffffffffffffffffffffffffffffffff1614806105c657506105c5816105c0610df5565b610abc565b5b610605576040517f08c379a00000000000000000000000000000000000000000000000000000000081526004016105fc9061222a565b60405180910390fd5b61060f8383610dfd565b505050565b61062561061f610df5565b82610eb6565b610664576040517f08c379a000000000000000000000000000000000000000000000000000000000815260040161065b906122bc565b60405180910390fd5b61066f838383610f4b565b505050565b61067e6006611244565b600061068a600661125a565b90506106963382611268565b6103e86008600083815260200190815260200160002081905550600760009054906101000a900473ffffffffffffffffffffffffffffffffffffffff1673ffffffffffffffffffffffffffffffffffffffff166340c10f19336103e86040518363ffffffff1660e01b815260040161070f929190612321565b600060405180830381600087803b15801561072957600080fd5b505af115801561073d573d6000803e3d6000fd5b50505050803373ffffffffffffffffffffffffffffffffffffffff167fb9144c96c86541f6fa89c9f2f02495cccf4b08cd6643e26d34ee00aa586558a860405160405180910390a350565b6107a3838383604051806020016040528060008152506109f2565b505050565b60006107b382611485565b6107f2576040517f08c379a00000000000000000000000000000000000000000000000000000000081526004016107e990612396565b60405180910390fd5b60086000838152602001908152602001600020549050919050565b600080610819836114c6565b9050600073ffffffffffffffffffffffffffffffffffffffff168173ffffffffffffffffffffffffffffffffffffffff160361088a576040517f08c379a000000000000000000000000000000000000000000000000000000000815260040161088190612402565b60405180910390fd5b80915050919050565b60008073ffffffffffffffffffffffffffffffffffffffff168273ffffffffffffffffffffffffffffffffffffffff1603610903576040517f08c379a00000000000000000000000000000000000000000000000000000000081526004016108fa90612494565b60405180910390fd5b600360008373ffffffffffffffffffffffffffffffffffffffff1673ffffffffffffffffffffffffffffffffffffffff168152602001908152602001600020549050919050565b606060018054610959906120f5565b80601f0160208091040260200160405190810160405280929190818152602001828054610985906120f5565b80156109d25780601f106109a7576101008083540402835291602001916109d2565b820191906000526020600020905b8154815290600101906020018083116109b557829003601f168201915b5050505050905090565b6109ee6109e7610df5565b8383611503565b5050565b610a036109fd610df5565b83610eb6565b610a42576040517f08c379a0000000000000000000000000000000000000000000000000000000008152600401610a39906122bc565b60405180910390fd5b610a4e8484848461166f565b50505050565b6060610a5f82610daa565b6000610a696116cb565b90506000815111610a895760405180602001604052806000815250610ab4565b80610a93846116e2565b604051602001610aa49291906124f0565b6040516020818303038152906040525b915050919050565b6000600560008473ffffffffffffffffffffffffffffffffffffffff1673ffffffffffffffffffffffffffffffffffffffff16815260200190815260200160002060008373ffffffffffffffffffffffffffffffffffffffff1673ffffffffffffffffffffffffffffffffffffffff16815260200190815260200160002060009054906101000a900460ff16905092915050565b610b5983611485565b610b98576040517f08c379a0000000000000000000000000000000000000000000000000000000008152600401610b8f90612560565b60405180910390fd5b610ba182611485565b610be0576040517f08c379a0000000000000000000000000000000000000000000000000000000008152600401610bd7906125cc565b60405180910390fd5b8060086000858152602001908152602001600020541015610c36576040517f08c379a0000000000000000000000000000000000000000000000000000000008152600401610c2d90612638565b60405180910390fd5b6000610c418361080d565b905081600860008681526020019081526020016000206000828254610c669190612687565b9250508190555081600860008581526020019081526020016000206000828254610c9091906126bb565b92505081905550600760009054906101000a900473ffffffffffffffffffffffffffffffffffffffff1673ffffffffffffffffffffffffffffffffffffffff166323b872dd3383856040518463ffffffff1660e01b8152600401610cf6939291906126ef565b6020604051808303816000875af1158015610d15573d6000803e3d6000fd5b505050506040513d601f19601f82011682018060405250810190610d39919061273b565b5050505050565b60007f01ffc9a7000000000000000000000000000000000000000000000000000000007bffffffffffffffffffffffffffffffffffffffffffffffffffffffff1916827bffffffffffffffffffffffffffffffffffffffffffffffffffffffff1916149050919050565b610db381611485565b610df2576040517f08c379a0000000000000000000000000000000000000000000000000000000008152600401610de990612402565b60405180910390fd5b50565b600033905090565b816004600083815260200190815260200160002060006101000a81548173ffffffffffffffffffffffffffffffffffffffff021916908373ffffffffffffffffffffffffffffffffffffffff160217905550808273ffffffffffffffffffffffffffffffffffffffff16610e708361080d565b73ffffffffffffffffffffffffffffffffffffffff167f8c5be1e5ebec7d5bd14f71427d1e84f3dd0314c0f7b2291e5b200ac8c7c3b92560405160405180910390a45050565b600080610ec28361080d565b90508073ffffffffffffffffffffffffffffffffffffffff168473ffffffffffffffffffffffffffffffffffffffff161480610f045750610f038185610abc565b5b80610f4257508373ffffffffffffffffffffffffffffffffffffffff16610f2a846104b7565b73ffffffffffffffffffffffffffffffffffffffff16145b91505092915050565b8273ffffffffffffffffffffffffffffffffffffffff16610f6b8261080d565b73ffffffffffffffffffffffffffffffffffffffff1614610fc1576040517f08c379a0000000000000000000000000000000000000000000000000000000008152600401610fb8906127da565b60405180910390fd5b600073ffffffffffffffffffffffffffffffffffffffff168273ffffffffffffffffffffffffffffffffffffffff1603611030576040517f08c379a00000000000000000000000000000000000000000000000000000000081526004016110279061286c565b60405180910390fd5b61103d83838360016117b0565b8273ffffffffffffffffffffffffffffffffffffffff1661105d8261080d565b73ffffffffffffffffffffffffffffffffffffffff16146110b3576040517f08c379a00000000000000000000000000000000000000000000000000000000081526004016110aa906127da565b60405180910390fd5b6004600082815260200190815260200160002060006101000a81549073ffffffffffffffffffffffffffffffffffffffff02191690556001600360008573ffffffffffffffffffffffffffffffffffffffff1673ffffffffffffffffffffffffffffffffffffffff168152602001908152602001600020600082825403925050819055506001600360008473ffffffffffffffffffffffffffffffffffffffff1673ffffffffffffffffffffffffffffffffffffffff16815260200190815260200160002060008282540192505081905550816002600083815260200190815260200160002060006101000a81548173ffffffffffffffffffffffffffffffffffffffff021916908373ffffffffffffffffffffffffffffffffffffffff160217905550808273ffffffffffffffffffffffffffffffffffffffff168473ffffffffffffffffffffffffffffffffffffffff167fddf252ad1be2c89b69c2b068fc378daa952ba7f163c4a11628f55a4df523b3ef60405160405180910390a461123f83838360016117b6565b505050565b6001816000016000828254019250508190555050565b600081600001549050919050565b600073ffffffffffffffffffffffffffffffffffffffff168273ffffffffffffffffffffffffffffffffffffffff16036112d7576040517f08c379a00000000000000000000000000000000000000000000000000000000081526004016112ce906128d8565b60405180910390fd5b6112e081611485565b15611320576040517f08c379a000000000000000000000000000000000000000000000000000000000815260040161131790612944565b60405180910390fd5b61132e6000838360016117b0565b61133781611485565b15611377576040517f08c379a000000000000000000000000000000000000000000000000000000000815260040161136e90612944565b60405180910390fd5b6001600360008473ffffffffffffffffffffffffffffffffffffffff1673ffffffffffffffffffffffffffffffffffffffff16815260200190815260200160002060008282540192505081905550816002600083815260200190815260200160002060006101000a81548173ffffffffffffffffffffffffffffffffffffffff021916908373ffffffffffffffffffffffffffffffffffffffff160217905550808273ffffffffffffffffffffffffffffffffffffffff16600073ffffffffffffffffffffffffffffffffffffffff167fddf252ad1be2c89b69c2b068fc378daa952ba7f163c4a11628f55a4df523b3ef60405160405180910390a46114816000838360016117b6565b5050565b60008073ffffffffffffffffffffffffffffffffffffffff166114a7836114c6565b73ffffffffffffffffffffffffffffffffffffffff1614159050919050565b60006002600083815260200190815260200160002060009054906101000a900473ffffffffffffffffffffffffffffffffffffffff169050919050565b8173ffffffffffffffffffffffffffffffffffffffff168373ffffffffffffffffffffffffffffffffffffffff1603611571576040517f08c379a0000000000000000000000000000000000000000000000000000000008152600401611568906129b0565b60405180910390fd5b80600560008573ffffffffffffffffffffffffffffffffffffffff1673ffffffffffffffffffffffffffffffffffffffff16815260200190815260200160002060008473ffffffffffffffffffffffffffffffffffffffff1673ffffffffffffffffffffffffffffffffffffffff16815260200190815260200160002060006101000a81548160ff0219169083151502179055508173ffffffffffffffffffffffffffffffffffffffff168373ffffffffffffffffffffffffffffffffffffffff167f17307eab39ab6107e8899845ad3d59bd9653f200f220920489ca2b5937696c31836040516116629190611b6d565b60405180910390a3505050565b61167a848484610f4b565b611686848484846117bc565b6116c5576040517f08c379a00000000000000000000000000000000000000000000000000000000081526004016116bc90612a42565b60405180910390fd5b50505050565b606060405180602001604052806000815250905090565b6060600060016116f184611943565b01905060008167ffffffffffffffff8111156117105761170f611e85565b5b6040519080825280601f01601f1916602001820160405280156117425781602001600182028036833780820191505090505b509050600082602001820190505b6001156117a5578080600190039150507f3031323334353637383961626364656600000000000000000000000000000000600a86061a8153600a858161179957611798612a62565b5b04945060008503611750575b819350505050919050565b50505050565b50505050565b60006117dd8473ffffffffffffffffffffffffffffffffffffffff16611a96565b15611936578373ffffffffffffffffffffffffffffffffffffffff1663150b7a02611806610df5565b8786866040518563ffffffff1660e01b81526004016118289493929190612ae6565b6020604051808303816000875af192505050801561186457506040513d601f19601f820116820180604052508101906118619190612b47565b60015b6118e6573d8060008114611894576040519150601f19603f3d011682016040523d82523d6000602084013e611899565b606091505b5060008151036118de576040517f08c379a00000000000000000000000000000000000000000000000000000000081526004016118d590612a42565b60405180910390fd5b805181602001fd5b63150b7a0260e01b7bffffffffffffffffffffffffffffffffffffffffffffffffffffffff1916817bffffffffffffffffffffffffffffffffffffffffffffffffffffffff19161491505061193b565b600190505b949350505050565b600080600090507a184f03e93ff9f4daa797ed6e38ed64bf6a1f01000000000000000083106119a1577a184f03e93ff9f4daa797ed6e38ed64bf6a1f010000000000000000838161199757611996612a62565b5b0492506040810190505b6d04ee2d6d415b85acef810000000083106119de576d04ee2d6d415b85acef810000000083816119d4576119d3612a62565b5b0492506020810190505b662386f26fc100008310611a0d57662386f26fc100008381611a0357611a02612a62565b5b0492506010810190505b6305f5e1008310611a36576305f5e1008381611a2c57611a2b612a62565b5b0492506008810190505b6127108310611a5b576127108381611a5157611a50612a62565b5b0492506004810190505b60648310611a7e5760648381611a7457611a73612a62565b5b0492506002810190505b600a8310611a8d576001810190505b80915050919050565b6000808273ffffffffffffffffffffffffffffffffffffffff163b119050919050565b6000604051905090565b600080fd5b600080fd5b60007fffffffff0000000000000000000000000000000000000000000000000000000082169050919050565b611b0281611acd565b8114611b0d57600080fd5b50565b600081359050611b1f81611af9565b92915050565b600060208284031215611b3b57611b3a611ac3565b5b6000611b4984828501611b10565b91505092915050565b60008115159050919050565b611b6781611b52565b82525050565b6000602082019050611b826000830184611b5e565b92915050565b600081519050919050565b600082825260208201905092915050565b60005b83811015611bc2578082015181840152602081019050611ba7565b60008484015250505050565b6000601f19601f8301169050919050565b6000611bea82611b88565b611bf48185611b93565b9350611c04818560208601611ba4565b611c0d81611bce565b840191505092915050565b60006020820190508181036000830152611c328184611bdf565b905092915050565b6000819050919050565b611c4d81611c3a565b8114611c5857600080fd5b50565b600081359050611c6a81611c44565b92915050565b600060208284031215611c8657611c85611ac3565b5b6000611c9484828501611c5b565b91505092915050565b600073ffffffffffffffffffffffffffffffffffffffff82169050919050565b6000611cc882611c9d565b9050919050565b611cd881611cbd565b82525050565b6000602082019050611cf36000830184611ccf565b92915050565b611d0281611cbd565b8114611d0d57600080fd5b50565b600081359050611d1f81611cf9565b92915050565b60008060408385031215611d3c57611d3b611ac3565b5b6000611d4a85828601611d10565b9250506020611d5b85828601611c5b565b9150509250929050565b600080600060608486031215611d7e57611d7d611ac3565b5b6000611d8c86828701611d10565b9350506020611d9d86828701611d10565b9250506040611dae86828701611c5b565b9150509250925092565b611dc181611c3a565b82525050565b6000602082019050611ddc6000830184611db8565b92915050565b600060208284031215611df857611df7611ac3565b5b6000611e0684828501611d10565b91505092915050565b611e1881611b52565b8114611e2357600080fd5b50565b600081359050611e3581611e0f565b92915050565b60008060408385031215611e5257611e51611ac3565b5b6000611e6085828601611d10565b9250506020611e7185828601611e26565b9150509250929050565b600080fd5b600080fd5b7f4e487b7100000000000000000000000000000000000000000000000000000000600052604160045260246000fd5b611ebd82611bce565b810181811067ffffffffffffffff82111715611edc57611edb611e85565b5b80604052505050565b6000611eef611ab9565b9050611efb8282611eb4565b919050565b600067ffffffffffffffff821115611f1b57611f1a611e85565b5b611f2482611bce565b9050602081019050919050565b82818337600083830152505050565b6000611f53611f4e84611f00565b611ee5565b905082815260208101848484011115611f6f57611f6e611e80565b5b611f7a848285611f31565b509392505050565b600082601f830112611f9757611f96611e7b565b5b8135611fa7848260208601611f40565b91505092915050565b60008060008060808587031215611fca57611fc9611ac3565b5b6000611fd887828801611d10565b9450506020611fe987828801611d10565b9350506040611ffa87828801611c5b565b925050606085013567ffffffffffffffff81111561201b5761201a611ac8565b5b61202787828801611f82565b91505092959194509250565b6000806040838503121561204a57612049611ac3565b5b600061205885828601611d10565b925050602061206985828601611d10565b9150509250929050565b60008060006060848603121561208c5761208b611ac3565b5b600061209a86828701611c5b565b93505060206120ab86828701611c5b565b92505060406120bc86828701611c5b565b9150509250925092565b7f4e487b7100000000000000000000000000000000000000000000000000000000600052602260045260246000fd5b6000600282049050600182168061210d57607f821691505b6020821081036121205761211f6120c6565b5b50919050565b7f4552433732313a20617070726f76616c20746f2063757272656e74206f776e6560008201527f7200000000000000000000000000000000000000000000000000000000000000602082015250565b6000612182602183611b93565b915061218d82612126565b604082019050919050565b600060208201905081810360008301526121b181612175565b9050919050565b7f4552433732313a20617070726f76652063616c6c6572206973206e6f7420746f60008201527f6b656e206f776e6572206f7220617070726f76656420666f7220616c6c000000602082015250565b6000612214603d83611b93565b915061221f826121b8565b604082019050919050565b6000602082019050818103600083015261224381612207565b9050919050565b7f4552433732313a2063616c6c6572206973206e6f7420746f6b656e206f776e6560008201527f72206f7220617070726f76656400000000000000000000000000000000000000602082015250565b60006122a6602d83611b93565b91506122b18261224a565b604082019050919050565b600060208201905081810360008301526122d581612299565b9050919050565b6000819050919050565b6000819050919050565b600061230b612306612301846122dc565b6122e6565b611c3a565b9050919050565b61231b816122f0565b82525050565b60006040820190506123366000830185611ccf565b6123436020830184612312565b9392505050565b7f45524337323120546f6b656e20646f6e74206578697374000000000000000000600082015250565b6000612380601783611b93565b915061238b8261234a565b602082019050919050565b600060208201905081810360008301526123af81612373565b9050919050565b7f4552433732313a20696e76616c696420746f6b656e2049440000000000000000600082015250565b60006123ec601883611b93565b91506123f7826123b6565b602082019050919050565b6000602082019050818103600083015261241b816123df565b9050919050565b7f4552433732313a2061646472657373207a65726f206973206e6f74206120766160008201527f6c6964206f776e65720000000000000000000000000000000000000000000000602082015250565b600061247e602983611b93565b915061248982612422565b604082019050919050565b600060208201905081810360008301526124ad81612471565b9050919050565b600081905092915050565b60006124ca82611b88565b6124d481856124b4565b93506124e4818560208601611ba4565b80840191505092915050565b60006124fc82856124bf565b915061250882846124bf565b91508190509392505050565b7f46726f6d2045524337323120746f6b656e20646f6573206e6f74206578697374600082015250565b600061254a602083611b93565b915061255582612514565b602082019050919050565b600060208201905081810360008301526125798161253d565b9050919050565b7f546f2045524337323120746f6b656e20646f6573206e6f742065786973740000600082015250565b60006125b6601e83611b93565b91506125c182612580565b602082019050919050565b600060208201905081810360008301526125e5816125a9565b9050919050565b7f496e73756666696369656e742045524332302062616c616e6365000000000000600082015250565b6000612622601a83611b93565b915061262d826125ec565b602082019050919050565b6000602082019050818103600083015261265181612615565b9050919050565b7f4e487b7100000000000000000000000000000000000000000000000000000000600052601160045260246000fd5b600061269282611c3a565b915061269d83611c3a565b92508282039050818111156126b5576126b4612658565b5b92915050565b60006126c682611c3a565b91506126d183611c3a565b92508282019050808211156126e9576126e8612658565b5b92915050565b60006060820190506127046000830186611ccf565b6127116020830185611ccf565b61271e6040830184611db8565b949350505050565b60008151905061273581611e0f565b92915050565b60006020828403121561275157612750611ac3565b5b600061275f84828501612726565b91505092915050565b7f4552433732313a207472616e736665722066726f6d20696e636f72726563742060008201527f6f776e6572000000000000000000000000000000000000000000000000000000602082015250565b60006127c4602583611b93565b91506127cf82612768565b604082019050919050565b600060208201905081810360008301526127f3816127b7565b9050919050565b7f4552433732313a207472616e7366657220746f20746865207a65726f2061646460008201527f7265737300000000000000000000000000000000000000000000000000000000602082015250565b6000612856602483611b93565b9150612861826127fa565b604082019050919050565b6000602082019050818103600083015261288581612849565b9050919050565b7f4552433732313a206d696e7420746f20746865207a65726f2061646472657373600082015250565b60006128c2602083611b93565b91506128cd8261288c565b602082019050919050565b600060208201905081810360008301526128f1816128b5565b9050919050565b7f4552433732313a20746f6b656e20616c7265616479206d696e74656400000000600082015250565b600061292e601c83611b93565b9150612939826128f8565b602082019050919050565b6000602082019050818103600083015261295d81612921565b9050919050565b7f4552433732313a20617070726f766520746f2063616c6c657200000000000000600082015250565b600061299a601983611b93565b91506129a582612964565b602082019050919050565b600060208201905081810360008301526129c98161298d565b9050919050565b7f4552433732313a207472616e7366657220746f206e6f6e20455243373231526560008201527f63656976657220696d706c656d656e7465720000000000000000000000000000602082015250565b6000612a2c603283611b93565b9150612a37826129d0565b604082019050919050565b60006020820190508181036000830152612a5b81612a1f565b9050919050565b7f4e487b7100000000000000000000000000000000000000000000000000000000600052601260045260246000fd5b600081519050919050565b600082825260208201905092915050565b6000612ab882612a91565b612ac28185612a9c565b9350612ad2818560208601611ba4565b612adb81611bce565b840191505092915050565b6000608082019050612afb6000830187611ccf565b612b086020830186611ccf565b612b156040830185611db8565b8181036060830152612b278184612aad565b905095945050505050565b600081519050612b4181611af9565b92915050565b600060208284031215612b5d57612b5c611ac3565b5b6000612b6b84828501612b32565b9150509291505056fea26469706673582212203b7e066e7fcc51a9a64eece33b021d7b35a9af2bdade9114e62c3a877566b06464736f6c63430008130033",
  "immutableReferences": {},
  "source": "//SPDX-License-Identifier: MIT\r\npragma solidity ^0.8.9;\r\nimport \"@openzeppelin/contracts/token/ERC721/ERC721.sol\";\r\nimport \"@openzeppelin/contracts/utils/Counters.sol\";\r\n\r\ninterface ERc20{\r\n     function mint(address minter, uint amount) external;\r\n     function transferFrom(address from, address to, uint amnt) external returns(bool);\r\n}\r\n\r\ncontract MapERC20withERC21 is ERC721 {\r\n  // Mapping to track the ERC20 token balance for each ERC721 token\r\n\r\n    using Counters for Counters.Counter;\r\n    Counters.Counter private _tokenIds;\r\n    address private ERC20Contract;  //  Declaring a variable of ERC20 type\r\n\r\n    mapping (uint=>uint) private _ERC20Balances;  //Mapping to track the ERC20 token balance for each ERC721 token Its key is tokenID and Value is the tokens\r\n\r\n    event TokenMinted(address indexed owner, uint indexed tokenId);\r\n\r\n    constructor(address ERC20Address) ERC721(\"Token721\", \"TKN\"){\r\n        ERC20Contract = ERC20Address;\r\n\r\n        // constructor takes an address parameter ERc20Address, which represents the address of the ERC20 contract.\r\n\r\n// The line ERC20Contract = ERC20(ERC20Address) assigns the instance of the ERC20 contract at the provided address ERC20Address to the ERC20Contract variable.\r\n\r\n// By storing an instance of the ERC20 contract, the ERC721 contract can use the ERC20Contract variable to call functions like transferFrom to transfer ERC20 tokens between tokens of the ERC721 contract.\r\n\r\n    }\r\n\r\n    function Mint() public{\r\n        \r\n        _tokenIds.increment();\r\n        uint newTokenId= _tokenIds.current();\r\n        _mint(msg.sender, newTokenId);\r\n        _ERC20Balances[newTokenId]= 1000;\r\n        ERc20(ERC20Contract).mint(msg.sender,1000);  \r\n        emit TokenMinted(msg.sender, newTokenId);\r\n    }\r\n\r\n    function getERC20BALance(uint tokenID) public view returns(uint){\r\n        require(_exists(tokenID), \"ERC721 Token dont exist\");\r\n        return _ERC20Balances[tokenID];\r\n    }\r\n\r\n\r\n    function TransferERC20(uint fromID, uint ToID,uint amnt) public{\r\n        require(_exists(fromID), \"From ERC721 token does not exist\");\r\n        require(_exists(ToID), \"To ERC721 token does not exist\");\r\n        require(_ERC20Balances[fromID] >= amnt, \"Insufficient ERC20 balance\");\r\naddress to = ownerOf(ToID);\r\n        _ERC20Balances[fromID]-= amnt;\r\n        _ERC20Balances[ToID]+= amnt;\r\n         ERc20(ERC20Contract).transferFrom(msg.sender,to, amnt );\r\n        //ERC20Contract.transferFrom(msg.sender, address(this), amnt);\r\n    }\r\n}",
  "sourcePath": "D:\\Shivam projects\\AskGalore Assignment\\contracts\\ERC721.sol",
  "compiler": {
    "name": "solc",
    "version": "0.8.19+commit.7dd6d404.Emscripten.clang"
  },
  "schemaVersion": "3.4.13",
  "updatedAt": "2023-06-30T06:19:47.875Z",
  "networkType": "ethereum",
  "devdoc": {
    "events": {
      "Approval(address,address,uint256)": {
        "details": "Emitted when `owner` enables `approved` to manage the `tokenId` token."
      },
      "ApprovalForAll(address,address,bool)": {
        "details": "Emitted when `owner` enables or disables (`approved`) `operator` to manage all of its assets."
      },
      "Transfer(address,address,uint256)": {
        "details": "Emitted when `tokenId` token is transferred from `from` to `to`."
      }
    },
    "kind": "dev",
    "methods": {
      "approve(address,uint256)": {
        "details": "See {IERC721-approve}."
      },
      "balanceOf(address)": {
        "details": "See {IERC721-balanceOf}."
      },
      "getApproved(uint256)": {
        "details": "See {IERC721-getApproved}."
      },
      "isApprovedForAll(address,address)": {
        "details": "See {IERC721-isApprovedForAll}."
      },
      "name()": {
        "details": "See {IERC721Metadata-name}."
      },
      "ownerOf(uint256)": {
        "details": "See {IERC721-ownerOf}."
      },
      "safeTransferFrom(address,address,uint256)": {
        "details": "See {IERC721-safeTransferFrom}."
      },
      "safeTransferFrom(address,address,uint256,bytes)": {
        "details": "See {IERC721-safeTransferFrom}."
      },
      "setApprovalForAll(address,bool)": {
        "details": "See {IERC721-setApprovalForAll}."
      },
      "supportsInterface(bytes4)": {
        "details": "See {IERC165-supportsInterface}."
      },
      "symbol()": {
        "details": "See {IERC721Metadata-symbol}."
      },
      "tokenURI(uint256)": {
        "details": "See {IERC721Metadata-tokenURI}."
      },
      "transferFrom(address,address,uint256)": {
        "details": "See {IERC721-transferFrom}."
      }
    },
    "version": 1
  },
  "userdoc": {
    "kind": "user",
    "methods": {},
    "version": 1
  }
}